:020000040800F2
:10000000501A002059040008450100084701000863
:10001000530100085F0100086B01000800000000A8
:100020000000000000000000000000007701000850
:1000300079010008000000006F0400087B0100083F
:100040007304000873040008730400087F010008AB
:1000500073040008730400087D010008730400089D
:100060007304000873040008730400087304000894
:100070007304000873040008730400087304000884
:100080007304000873040008730400087304000874
:100090007304000873040008730400087304000864
:1000A0007304000873040008730400087304000854
:1000B0006F230008A73B00087304000873040008BE
:1000C0007304000873040008730400087304000834
:1000D0007304000833210008E95400089937000828
:1000E0007304000873040008730400087304000814
:1000F0007304000873040008730400087304000804
:1001000073040008730400087304000873040008F3
:1001100003340008D53C0008730400087304000889
:1001200073040008730400087304000873040008D3
:10013000DFF80CD005F0D6FD00480047AD3D0008C3
:10014000501A002070470EA11C4801F0CEFF00BFDE
:10015000FEE71BA1194801F0C8FF00BFFEE727A179
:10016000164801F0C2FF00BFFEE733A1134801F0BB
:10017000BCFF00BFFEE7704770477047704770478D
:100180000D0A2A2A2A2A2A2A2A2A2A2A2A2A2A2A0C
:100190002A2A2A2A2A486172644661756C745F486B
:1001A000616E646C65722A2A2A2A2A2A2A2A2A2A35
:1001B0002A2A2A2A2A2A2A2A2A0D0A000038014035
:1001C0000D0A2A2A2A2A2A2A2A2A2A2A2A2A2A2ACC
:1001D0002A2A2A2A2A4D656D4D616E6167655F483E
:1001E000616E646C65722A2A2A2A2A2A2A2A2A2AF5
:1001F0002A2A2A2A2A2A2A2A2A0D0A000D0A2A2A03
:100200002A2A2A2A2A2A2A2A2A2A2A2A2A2A2A2A4E
:100210002A4275734661756C745F48616E646C65E3
:10022000722A2A2A2A2A2A2A2A2A2A2A2A2A2A2AE6
:100230002A2A2A2A0D0A00000D0A2A2A2A2A2A2AEC
:100240002A2A2A2A2A2A2A2A2A2A2A2A2A55736163
:1002500067654661756C745F48616E646C65722A8F
:100260002A2A2A2A2A2A2A2A2A2A2A2A2A2A2A2AEE
:100270002A2A0D0A000000000CB500200190009011
:100280006C48006840F480306A49086000BF6948E3
:10029000006800F4003000900198401C0190009824
:1002A00018B90198B0F5A06FF1D16248006800F468
:1002B000003010B10120009001E000200090009873
:1002C000012843D15C48006840F010005A4908609A
:1002D0000846006820F0030008600846006840F007
:1002E0000200086053484068524948600846406828
:1002F00048600846406840F48060486008464068AE
:1003000020F47C1048600846406840F4881048603B
:100310000846006840F08070086000BF45480068EB
:1003200000F000700028F9D04248406820F0030037
:10033000404948600846406840F00200486000BFFD
:100340003C48406800F00C000828F9D10CBD10B5FD
:10035000FFF792FF10BD10B53648006840F001006D
:1003600034490860084640683449084031494860CB
:1003700008460068324908402E490860084600686F
:1003800020F4802008600846406820F4FE004860A1
:100390004FF41F008860FFF7DAFF4FF00060294933
:1003A000086010BD10B5002100200022214B5B68C1
:1003B00003F00C0121B1042906D0082928D107E057
:1003C000214B224C236027E01F4B204C236023E06D
:1003D000184B5B6803F47010164B5B6803F48032B3
:1003E000022303EB904022B9194B4343174C23607F
:1003F0000DE0104B5B6803F4003323B1144B43430F
:10040000124C236003E0104B4343104C236003E085
:100410000D4B0E4C236000BF00BF064B5B68C3F35F
:1004200003130C4CE15C094B1B68CB40074C236069
:1004300010BD000000100240002002400000FFF844
:10044000FFFFF6FE08ED00E000127A000000002039
:1004500000093D0004000020064880470648004788
:10046000FEE7FEE7FEE7FEE7FEE7FEE7FEE7FEE764
:10047000FEE7FEE757030008310100083149014358
:10048000314A1160704770B5002100230F22C478F3
:1004900004B32D4C246804F4E064C4F5E064210A3C
:1004A000C1F10403CA40447804FA03F1847814408B
:1004B00021430901254C0678A155047804F01F0555
:1004C0000124AC4005786D11AD0005F1E025C5F8BB
:1004D000004109E0047804F01F050124AC401C4DE4
:1004E0000678761145F8264070BD1A4A0A40024344
:1004F000154B1B1F1A60704739B1134A121D126841
:100500000243114B1B1D1A6006E00F4A121D1268B0
:1005100082430D4B1B1D1A607047042808D14FF011
:10052000E021096941F004014FF0E022116107E088
:100530004FF0E021096921F004014FF0E022116140
:10054000704700000000FA050CED00E000E400E058
:1005500080E100E080FFFF1F10B50446CC488442D4
:1005600008D10121042000F02DFB0021042000F01F
:1005700029FB46E0C748844208D10121082000F049
:1005800021FB0021082000F01DFB3AE0C248844214
:1005900008D10121102000F015FB0021102000F0EF
:1005A00011FB2EE0BD48844208D10121202000F03B
:1005B00009FB0021202000F005FB22E0B84884421E
:1005C00008D10121402000F0FDFA0021402000F078
:1005D000F9FA16E0B348844208D10121802000F0E6
:1005E000F1FA0021802000F0EDFA0AE0AE488442E2
:1005F00007D10121801500F0E5FA0021A01500F0D7
:10060000E1FA10BD10B50121084600F0DBFA002127
:10061000012000F0D7FA10BD2DE9F0410246002577
:100620000026002000230024002791F803C00CF0CE
:100630000F0591F803C00CF0100CBCF1000F03D0B3
:1006400091F802C04CEA050591F800C0BCF1000F1A
:1006500031D0146800202BE04FF0010C0CFA00F3AD
:10066000B1F800C00CEA03069E4220D183004FF08F
:100670000F0C0CFA03F7BC4305FA03FC4CEA040424
:1006800091F803C0BCF1280F06D14FF0010C0CFA11
:1006900000FCC2F814C00AE091F803C0BCF1480F96
:1006A00005D14FF0010C0CFA00FCC2F810C0401C40
:1006B0000828D1D31460B1F800C0BCF1FF0F34DDBD
:1006C000546800202EE000F1080C4FF0010808FAF1
:1006D0000CF3B1F800C00CEA03069E4221D183005E
:1006E0004FF00F0C0CFA03F7BC4305FA03FC4CEA7D
:1006F000040491F803C0BCF1280F05D100F1080CE7
:1007000008FA0CF8C2F8148091F803C0BCF1480F45
:1007100007D100F1080C4FF0010808FA0CF8C2F8F4
:100720001080401C0828CED35460BDE8F0814FF6FD
:10073000FF710180022181700421C170704702465F
:10074000002093680B400BB1012000E000207047AF
:100750000146886880B2704702460020D3680B408B
:100760000BB1012000E0002070470146C86880B24C
:10077000704701617047416170470AB1016100E053
:1007800041617047C16070474FF480320A43826113
:100790008161826182698269704702460020434B11
:1007A00018684FF68073184040EA021008433F4B28
:1007B000186070473E49C8617047F0B50A4600238B
:1007C00000240021002500F00046B6F1004F02D1C0
:1007D000364EF16901E0354E7168C0F3034583B2CE
:1007E00000F44016B6F5401F08D121F070612F4E7D
:1007F000766826F070662D4F7E6012E000F4801659
:10080000B6F5801F06D1032606FA05F4A14341F090
:10081000706106E0460D360103FA06F6B14341F079
:10082000706122B1460D360103FA06F6314300F03D
:100830000046B6F1004F02D11C4EF16101E01B4EA3
:100840007160F0BD30B500228B071C0F0F2303FA37
:1008500004F2164B08338C1053F824309343134C96
:1008600008348D1044F8253023468C1053F824307A
:100870008C07240F00FA04F423430C4C08348D1029
:1008800044F8253030BD0A49DC310860704700006B
:1008900000080140000C014000100140001401401C
:1008A00000180140001C01400020014000000140F0
:1008B00000002042DF48006840F00100DD49086088
:1008C00008464068DC490840DA4948600846006844
:1008D000DA490840D74908600846006820F48020BB
:1008E00008600846406820F4FE0048604FF41F008E
:1008F00088607047CF49096821F48031CD4A116082
:100900001146096821F480211160B0F5803F03D0C1
:10091000B0F5802F0ED106E0C649096841F4803158
:10092000C44A116007E0C349096841F4A021C14AE3
:10093000116000E000BF00BF704710B50146002203
:10094000002300204A11012A02D1BA4C236806E094
:10095000022A02D1B74C236A01E0B64C636A01F067
:100960001F02012494401C400CB1012000E0002033
:1009700010BD38B5002000900024002500BF3120B4
:10098000FFF7DBFF05460098401C00900098B0F58B
:10099000A06F01D0002DF2D03120FFF7CEFF08B1BB
:1009A000012400E00024204638BD01460020A14A71
:1009B000106820F0F80040EAC10010607047A049BC
:1009C00008607047024600209A4B586820F47C105B
:1009D00042EA01031843974B5860704798490866EC
:1009E000704701460020934A506820F003000843F6
:1009F000506070478F48406800F00C007047014617
:100A000000208C4A506820F0F00008435060704786
:100A100001460020874A506820F4E0600843506097
:100A2000704701460020834A506820F4605040EA35
:100A3000C1005060704729B17E4A527A02437D4B13
:100A40005A7204E07B4A527A82437A4B5A72704758
:100A50007B49D8310860704701460020754A5068CC
:100A600020F440400843506070470021714A203212
:100A70001170704A82F82010012802D004280AD18F
:100A800004E001216B4A2032117005E00521694A1A
:100A90002032117000E000BF00BF70476949086054
:100AA00070476449096A0143624A116270476549A7
:100AB00044390860704730B500210022002400232B
:100AC0005C4D6D6805F00C0121B1042905D00829A1
:100AD00023D105E05C4D056022E05B4D05601FE021
:100AE000544D6D6805F47012524D6D6805F48034F4
:100AF000022505EB92421CB9544D554305600BE0AD
:100B00004C4D6D6805F400351DB1504D55430560E1
:100B100002E04D4D5543056002E04B4D056000BFBE
:100B200000BF444D6D6805F0F0010909484D6B5C4C
:100B30000568DD4045603F4D6D6805F4E061090AD8
:100B4000434D6B5C4568DD4085603A4D6D6805F44A
:100B50006051C90A3E4D6B5C4568DD40C560354D4E
:100B60006D6805F44041890B3A4D6B5CC568B5FB77
:100B7000F3F5056130BD29B12E4A526902432D4B70
:100B80005A6104E02B4A526982432A4B5A617047EA
:100B900029B1284A92690243264B9A6104E0254A0A
:100BA00092698243234B9A61704729B1214AD269E5
:100BB0000243204BDA6104E01E4AD26982431D4B96
:100BC000DA61704729B11B4AD2680243194BDA60D7
:100BD00004E0184AD2688243164BDA60704729B1A4
:100BE000144A12690243134B1A6104E0114A126954
:100BF0008243104B1A6170471249403908607047B0
:100C00000F49C86470470B49C87170470948406A6A
:100C100040F0807007494862704701460020054A4D
:100C200092680A400AB1012000E0002070470149A3
:100C300088727047001002400000FFF8FFFFF6FEC8
:100C4000000042428004424200127A0000093D0046
:100C5000140000202400002010B50446FB48844204
:100C600009D101218803FFF7ADFF00214FF4804037
:100C7000FFF7A8FF32E0F648844209D10121480479
:100C8000FFF7ADFF00214FF40030FFF7A8FF25E08C
:100C9000F048844209D101218804FFF7A0FF002118
:100CA0004FF48020FFF79BFF18E0EB48844209D106
:100CB0000121C804FFF793FF00214FF40020FFF744
:100CC0008EFF0BE0E548844208D101210805FFF7BB
:100CD00086FF00214FF48010FFF781FF10BD2DE942
:100CE000F04786B005460E460024A24600BFA14646
:100CF0000027B08900B100BF2F462C8A4CF6FF7048
:100D00000440F08804432C82AC894EF6F310044072
:100D1000B08831890843718908430443AC81AC8AA7
:100D20004FF6FF400440B0890443AC8201A8FFF7AE
:100D3000C2FEC648874202D1DDF810A001E0DDF80E
:100D40000CA0A88900F4004040B10AEBCA0000EBF7
:100D50000A1031684900B0FBF1F807E00AEBCA005D
:100D600000EB0A1031688900B0FBF1F86420B8FB91
:100D7000F0F004012009642101FB1089A88900F426
:100D8000004040B1322000EBC900B0FBF1F000F0B0
:100D90000700044308E0322000EB09106421B0FB97
:100DA000F1F000F00F0004432C8106B0BDE8F0879D
:100DB0004FF41651016000218180C18001810C2116
:100DC000418100218181704710B502460020108AC0
:100DD0004FF2FF0318400B884C8823438C88234331
:100DE000CC8823431843108210BD0021018041802C
:100DF0008180C180704721B1828942F40052828192
:100E000004E082894DF6FF731A4082817047F0B585
:100E10000346002400260025002040F66A17B94248
:100E200000D100BF1846C1F3421401F01F0601278C
:100E300007FA06F5012C01D10C3004E0022C01D197
:100E4000103000E014301AB107682F43076002E049
:100E50000768AF430760F0BD1AB1838A0B438382F2
:100E600002E0838A8B4383827047028A4FF6F073D5
:100E70001A400282028A0A430282704782894FF234
:100E8000FF731A40828182890A438281704721B1AF
:100E9000828942F00202828104E082894FF6FD736A
:100EA0001A4082817047028A4FF6DF731A4002822D
:100EB000028A0A430282704721B1028A42F48042C8
:100EC000028204E0028A4BF6FF731A4002827047E6
:100ED000C1F308028280704701468888C0F3080089
:100EE0007047818941F0010181817047028BD2B244
:100EF0000283028B42EA012202837047028B02F4D2
:100F00007F420283028B0A430283704721B1828AA7
:100F100042F02002828204E0828A4FF6DF731A4098
:100F20008282704721B1828A42F01002828204E0FC
:100F3000828A4FF6EF731A408282704721B1828A0B
:100F400042F00802828204E0828A4FF6F7731A4068
:100F50008282704721B1828942F40042828103E09B
:100F60008289C2F30E028281704721B1828A42F4E3
:100F70000062828204E0828A4FF2FF731A4082820A
:100F80007047828A4FF6FB731A408282828A0A4334
:100F90008282704721B1828A42F00202828204E09A
:100FA000828A4FF6FD731A40828270470246002003
:100FB000B1F5007F00D100BF13880B400BB10120B9
:100FC00000E00020704701F40072B2F5007F00D10C
:100FD00000BFCA430280704770B502460024002358
:100FE0000025002040F66A16B14200D100BFC1F3CF
:100FF000421501F01F03012606FA03F3012D02D169
:101000009689334006E0022D02D1168A334001E072
:10101000968A33400C12012606FA04F416883440EE
:1010200013B10CB1012000E0002070BD10B500220A
:10103000002340F66A14A14200D100BF0A12012425
:101040009440A3B2DC43048010BD0000003801408E
:101050000044004000480040004C00400050004068
:1010600010B50446FE48844208D10121C014FFF7A0
:10107000A9FD0021E014FFF7A5FDC4E0B4F1804F05
:1010800008D101210846FFF7AAFD00210120FFF742
:10109000A6FDB8E0F348844208D101210220FFF701
:1010A0009EFD00210220FFF79AFDACE0EE4884424D
:1010B00008D101210420FFF792FD00210420FFF751
:1010C0008EFDA0E0E948844208D101210820FFF705
:1010D00086FD00210820FFF782FD94E0E448844269
:1010E00008D101211020FFF77AFD00211020FFF721
:1010F00076FD88E0DF48844208D101212020FFF7F7
:101100006EFD00212020FFF76AFD7CE0DA48844272
:1011100008D101214014FFF755FD00216014FFF7AD
:1011200051FD70E0D548844209D10121C804FFF780
:1011300049FD00214FF40020FFF744FD63E0D04853
:10114000844209D101210805FFF73CFD00214FF43D
:101150008010FFF737FD56E0CA48844209D10121CB
:101160004805FFF72FFD00214FF40010FFF72AFD7F
:1011700049E0C548844208D101214020FFF72FFDF6
:1011800000214020FFF72BFD3DE0C048844208D1FC
:1011900001218020FFF723FD00218020FFF71FFDA4
:1011A00031E0BB48844208D101218015FFF717FDCB
:1011B0000021A015FFF713FD25E0B648844209D1B0
:1011C00001210804FFF7FEFC00214FF48030FFF7F7
:1011D000F9FC18E0B048844209D101214804FFF726
:1011E000F1FC00214FF40030FFF7ECFC0BE0AB48C2
:1011F000844208D101218804FFF7E4FC00214FF468
:101200008020FFF7DFFC10BD00220288944B98423B
:101210000ED0994B98420BD0B0F1804F08D0914B33
:10122000984205D0904B984202D0904B984204D1FE
:101230004FF68F731A404B881A438D4B984207D054
:101240008C4B984204D04FF6FF431A40CB881A4388
:1012500002808B8883850B880385814B98420BD055
:10126000854B984208D08B4B984205D08A4B9842C8
:1012700002D08A4B984201D10B7A038601238382E4
:10128000704770B5002400220023058C4FF6FE76CF
:1012900035400584028C8388048B4FF68F752C4073
:1012A000B51E2C400D882C43751E2A400D892A43FB
:1012B0004D882A436A4DA8420BD06F4DA84208D0F2
:1012C000744DA84205D0744DA84202D0734DA84277
:1012D00013D14FF6F7752A404D892A434FF6FB7517
:1012E0002A408D882A434FF6FF652B404FF6FF5565
:1012F0002B408D892B43CD892B4383800483CD885C
:101300008586028470BD70B5002400220023058C00
:101310004FF6EF7635400584028C8388048B48F6BF
:10132000FF752C404FF6FF452C400D884FF6FF7699
:1013300006EA05252C434FF6DF752A400D8906EA9B
:1013400005152A434D8806EA05152A43444DA8424F
:1013500002D0494DA8421DD14FF67F752A404D89D4
:101360004FF6FF7606EA05152A434FF6BF752A4069
:101370008D8806EA05152A434FF6FF352B404FF2BC
:10138000FF752B408D8906EA85052B43CD8906EA3A
:1013900085052B4383800483CD880587028470BD37
:1013A00070B5002400220023058C4FF6FF663540FF
:1013B0000584028C8388848B4FF68F752C404FF602
:1013C000FC752C400D882C434FF6FF552A400D89A3
:1013D0004FF6FF7606EA05252A434D8806EA0525DD
:1013E0002A431F4DA84202D0234DA8421DD14FF2DF
:1013F000FF752A404D894FF6FF7606EA05252A43F8
:101400004FF6FF352A408D8806EA05252A434EF619
:10141000FF752B404DF6FF752B408D8906EA0515AB
:101420002B43CD8906EA05152B4383808483CD8821
:101430008587028470BD70B5002200230024058CCE
:101440004EF6FF7635400584038C8488828B48F6FF
:10145000FF752A404FF6FF452A400D8820E0000026
:10146000002C01400004004000080040000C004037
:10147000001000400014004000340140004C0140C6
:10148000005001400054014000180040001C004082
:10149000002000400040014000440140004801405D
:1014A0004FF6FF7606EA05252A434DF6FF752B40D9
:1014B0000D8906EA05352B434D8806EA05352B4391
:1014C000FA4DA84202D0FA4DA84208D14BF6FF755A
:1014D0002C408D894FF6FF7606EA85152C438480D3
:1014E0008283CD88A0F84050038470BD828B4FF278
:1014F000FF331A408283828B4FF6FF7303EA012386
:101500001A4382837047F0B50C461546002200212D
:101510000026078C4EF6FF7C07EA0C070784828BB7
:10152000018C4FF6FF7707EA043640F6FF473A4052
:101530004FF6FF7707EA05273A434FF6FF7707EAAA
:1015400003373A43D94FB8420ED0D94FB8420BD0E7
:10155000B0F1804F08D0D74FB84205D0D64FB8422F
:1015600002D0D64FB84206D14DF6FF77394046F447
:101570008057394305E047F6FF57394044F4805718
:10158000394382830184F0BD828B4FF6F3731A4096
:101590008283828B0A4382837047F0B50C461546DE
:1015A000002200210026078C4FF6FF6C07EA0C078B
:1015B0000784828B018C4FF6FF7707EA04264FF6EB
:1015C0000C773A404FF6FF7707EA03172F433A4369
:1015D000B64FB8420ED0B64FB8420BD0B0F1804FE4
:1015E00008D0B44FB84205D0B34FB84202D0B34F81
:1015F000B84206D14FF6FF57394046F48077394359
:1016000005E04FF2FF57394044F480773943828335
:101610000184F0BD028B4FF2FF331A400283028B2C
:101620004FF6FF7303EA01231A4302837047F0B5B4
:101630000C461546002200210026078C4FF6EF7C51
:1016400007EA0C070784028B018C4FF6FF7707EA45
:10165000041640F6FF473A404FF6FF7707EA033794
:101660003A434FF6FF7707EA05273A438F4FB842D0
:101670000ED08F4FB8420BD0B0F1804F08D08D4FB5
:10168000B84205D08C4FB84202D08C4FB84206D138
:101690004FF6DF77394046F01007394305E04FF643
:1016A0005F77394044F01007394302830184F0BD6D
:1016B000028B4FF6F3731A400283028B0A430283B4
:1016C0007047F0B50C46154600220021068C4FF6F7
:1016D000FE773E400684028B018C4FF60C7632403A
:1016E0007E1C06EA03162E433243704EB0420ED0E3
:1016F0006F4EB0420BD0B0F1804F08D06D4EB0426B
:1017000005D06D4EB04202D06C4EB04206D14FF6BD
:10171000FD76314044F00106314305E04FF6F576A1
:10172000314044F00106314302830184F0BD70B5BD
:1017300005460C465D4885420ED05D4885420BD07B
:10174000B5F1804F08D05B48854205D05A488542A4
:1017500002D05A48854200D100E000BF208850B92D
:101760002389A28861882846FFF7ABFFE1882846D5
:10177000FFF79EFF25E0208804280AD12389A2884C
:1017800061882846FFF753FFE1882846FFF742FFAC
:1017900017E0208808280AD12389A2886188284672
:1017A000FFF7FBFEE1882846FFF7EEFE09E02389FC
:1017B000A28861882846FFF7A6FEE1882846FFF741
:1017C00095FE70BD2DE9F04105460C460026012727
:1017D000608808B9022600E00026A088012801D10F
:1017E000022700E001272088A0B92389A288618808
:1017F0002846FFF766FFE1882846FFF759FF23894F
:101800003A4631462846FFF712FFE1882846FFF79F
:1018100001FF13E02389A28861882846FFF707FFAC
:10182000E1882846FFF7F6FE23893A4631462846E6
:10183000FFF747FFE1882846FFF73AFFBDE8F08150
:101840000A884B881A438B881A43CB881A430B8922
:101850001A434B891A438B891A43A0F844207047D6
:101860004FF6FF71818000210180C18041800172AB
:1018700070470021018041808180C18001814181C8
:101880008181C181704700210180418001218180D7
:101890000021C18001817047002101804180818049
:1018A000C18001814181818170470000002C01408D
:1018B000003401400004004000080040000C0040DB
:1018C00021B1028842F00102028004E002884FF652
:1018D000FE731A400280704731B1B0F8442042F4E0
:1018E0000042A0F8442005E0B0F84420C2F30E0204
:1018F000A0F8442070471AB183890B43838102E02A
:1019000083898B43838170478182704741EA020358
:10191000A0F8483070471AB183890B43838102E0F5
:1019200083898B438381704701894FF6F872114098
:10193000018170470A46002101894FF68F731940D3
:1019400011430181704730B504460D4629462046B3
:10195000FFF7F0FF208940F00700208130BD2DE91E
:10196000F04104460D4616461F46602D06D13B4603
:10197000012231462046FFF75AFE05E03B46012290
:1019800031462046FFF79DFE29462046FFF7D2FF4D
:10199000208940F007002081BDE8F08130B50C4679
:1019A00000210189C9B24FF6FF7505EA03251543E9
:1019B00025432943018130BD2DE9F04105460E46FE
:1019C00017469846002443463A4631462846FFF7D4
:1019D000E5FF2C894FF6F870044044F007044FF6F9
:1019E0008F70044044F070042C81BDE8F081F0B5A4
:1019F00004460D4616461F463B46324629462046BB
:101A0000FFF7CCFF208940F480402081F0BD0185A4
:101A1000828270470A46002101884FF68F73194071
:101A2000114301807047F0B50C4615461E46002153
:101A3000002200230189028B038C4FF6F87739408E
:101A400021434FF6FC473A4040F201173A434FF624
:101A5000DD773B404FF6FF7707EA06172F433B43FE
:101A6000018102830384F0BD0A460021018B4FF6F9
:101A70008F7319401143018370470A460021018B7F
:101A800048F6FF7319404FF6FF7303EA0223194328
:101A9000018370470A460021818B4FF68F731940EE
:101AA0001143818370470A460021818B48F6FF73FA
:101AB00019404FF6FF7303EA0223194381837047ED
:101AC00021B1028842F08002028004E002884FF6D1
:101AD0007F731A400280704721B1828842F004026D
:101AE000828004E082884FF6FB731A408280704740
:101AF00021B1828842F00802828004E082884FF699
:101B0000F7731A408280704721B1828842F0010247
:101B1000828004E082884FF6FE731A40828070470C
:101B20000A460021018B4FF6F773194011430183D8
:101B300070470A460021018B4FF2FF7319404FF6A0
:101B4000FF7303EA02231943018370470A46002109
:101B5000818B4FF6F77319401143818370470A4612
:101B60000021818B4FF2FF7319404FF6FF7303EA98
:101B700002231943818370470A460021018B4FF6E7
:101B8000FB7319401143018370470A460021018B02
:101B90004FF6FF3319404FF6FF7303EA0223194350
:101BA000018370470A460021818B4FF6FB73194071
:101BB0001143818370470A460021818B4FF6FF3322
:101BC00019404FF6FF7303EA0223194381837047DC
:101BD0000A460021018B4FF67F73194011430183A0
:101BE00070470A460021018BC1F30E014FF6FF73C7
:101BF00003EA02231943018370470A460021818BBF
:101C00004FF67F7319401143818370470A460021C4
:101C1000818BC1F30E014FF6FF7303EA02231943D0
:101C2000818370470A460021018C4FF6FD731940ED
:101C30001143018470470A460021018C4FF6F77367
:101C400019401143018470470A460021018C4FF668
:101C5000DF7319404FF6FF7303EA0213194301843F
:101C600070470A460021018C4FF67F7319404FF6EA
:101C7000FF7303EA02131943018470470A460021E7
:101C8000018C4FF6FF5319404FF6FF7303EA02230E
:101C90001943018470470A460021018C4FF2FF73FB
:101CA00019404FF6FF7303EA02231943018470477A
:101CB0000A460021018C4DF6FF7319404FF6FF7361
:101CC00003EA023319430184704730B5002301242D
:101CD0008C40A3B2048C9C430484048C02FA01F56A
:101CE000ADB22C43048430BD30B5002304248C40B5
:101CF000A3B2048C9C430484048C02FA01F5ADB2B7
:101D00002C43048430BD70B50346002000241846DF
:101D1000183001258D40ACB21D8CA5431D8409B13E
:101D2000082909D100EB6100056825F07005056000
:101D30000568154305600EE00D1FC5F34E052844E8
:101D4000056825F4E045056005684FF6FF7606EA6C
:101D500002263543056070BD21B1028842F00202BF
:101D6000028004E002884FF6FD731A40028070473B
:101D700021B1028842F00402028004E002884FF69A
:101D8000FB731A400280704721B1828842F08002C2
:101D9000828004E082884FF67F731A408280704709
:101DA00002884FF6F7731A40028002880A430280C5
:101DB000704782884FF68F731A40828082880A4368
:101DC0008280704702894FF6F8731A4002810289B7
:101DD0000A430281704702894FF67F731A400281DD
:101DE00002890A4302817047818470478185704768
:101DF000818670470187704781877047A0F840103F
:101E0000704702884FF6FF431A40028002880A4357
:101E1000028070470146888E70470146088F7047E0
:101E20000146888F70470146B1F84000704701466F
:101E3000888C70470146088D704702460020138A3F
:101E40000B400BB1012000E000207047CA43028222
:101E5000704730B50246002000230024158A05EAA9
:101E60000103958905EA010413B10CB1012000E0DA
:101E7000002030BDCA430282704700004FF0E020CE
:101E8000006920F004004FF0E02108610920364984
:101E900008700846007800EB4001C1EBC0104FF617
:101EA000FF7101EAC000314908807047002120F02D
:101EB0007F402D4A127842434FF0E0235A610022BE
:101EC0009A6101221A6100BF4FF0E022116901F00E
:101ED00001021AB101F48032002AF5D000224FF03D
:101EE000E0231A619A617047002100B9704720F021
:101EF0007F401E4A128842434FF0E0235A6100227D
:101F00009A6101221A6100BF4FF0E022116901F0CD
:101F100001021AB101F48032002AF5D000224FF0FC
:101F2000E0231A619A6100BFE0E770B5044600261D
:101F300000254FF4FA7094FBF0F0C6B24FF4FA703B
:101F400094FBF0F100FB114085B205E04FF4FA700C
:101F5000FFF7CAFF701EC6B2002EF7D115B1284692
:101F6000FFF7C2FF70BD0000280000202A000020FB
:101F700010B586B0044601210420FEF709FE0121B8
:101F80008803FEF705FE18208DF817004FF4007047
:101F9000ADF8140003208DF8160005A96B48FEF774
:101FA0003BFB04208DF817000002ADF8140003205D
:101FB0008DF8160005A96548FEF72EFB0194002058
:101FC000ADF810000C20ADF80E000020ADF80C00AC
:101FD000ADF80A00ADF8080001A95D48FEF77FFEE4
:101FE00001215B48FEF707FF012240F225515848C6
:101FF000FEF70DFF25208DF8000001208DF803006D
:1020000000208DF8010002208DF802006846FEF7DE
:102010003AFA06B010BD10B586B00446012104207E
:10202000FEF7B6FD01214804FEF7BFFD18208DF82C
:1020300017000420ADF8140003208DF8160005A940
:102040004248FEF7E9FA04208DF817000820ADF8A1
:10205000140003208DF8160005A93C48FEF7DCFAB1
:1020600001940020ADF810000C20ADF80E00002007
:10207000ADF80C00ADF80A00ADF8080001A935482C
:10208000FEF72DFE01213348FEF7B5FE012240F296
:1020900025513048FEF7BBFE26208DF800000120B8
:1020A0008DF8030000208DF801008DF802006846CD
:1020B000FEF7E9F906B010BD2DE9F04107460C46E0
:1020C000154600260DE014F8011B3846FEF700FF08
:1020D00000BF40213846FEF769FF0028F9D0701C88
:1020E00086B2AE42EFDBBDE8F0810FB430B5CBB0C5
:1020F000054601AC50A800904FF4947101A8009BD4
:102100004F9A03F0C3FE002000900BE014F8011B6F
:102110002846FEF7DDFE00BF40212846FEF746FFB9
:102120000028F9D020780028F0D14BB030BC5DF801
:1021300014FB10B540F225510548FEF74DFF18B1CC
:1021400020210348FEF73FFF10BD000000080140BA
:10215000003801400044004010B56648006820F097
:102160007060644908600846006840F0407008608C
:10217000002240215F48FEF700FB1E20FFF7D5FE3E
:10218000012240215B48FEF7F8FA1E20FFF78EFE81
:1021900010BD10B500245748006820F07060554904
:1021A00008600846006840F00060086004E0601CB9
:1021B000C4B20120FFF77AFE40214E48FEF7BFFA75
:1021C000012801D1462CF2DB462C01DB012010BD99
:1021D000002404E0601CC4B20120FFF767FE402128
:1021E0004448FEF7ACFA08B9462CF3DB462C01DB79
:1021F0000220ECE70020EAE710B5002404E0601CB0
:10220000C4B20120FFF752FE40213A48FEF797FA88
:10221000012801D1282CF2DB002404E0601CC4B2A8
:102220000120FFF743FE40213248FEF788FA08B943
:102230003C2CF3DB2320FFF739FE40212D48FEF72D
:102240007EFA08B1012010BD0020FCE770B5002423
:10225000002506E06006040EFFF7CEFF0443681C6D
:10226000C5B2082DF6DB204670BD7CB505460E468E
:10227000FFF772FFFFF78DFF08BB002405E0FFF7B3
:10228000E5FF0DF80400601CC4B2052CF7DB9DF8D7
:1022900000009DF8011008449DF8021008449DF8C4
:1022A000031008449DF80410884206D19DF80000F0
:1022B00030709DF80200287003E001207CBD0220F0
:1022C000FCE70020FAE708B501210420FEF760FCD6
:1022D0004020ADF8000003208DF8020010208DF89A
:1022E000030069460348FEF797F9FFF735FFFFF74C
:1022F00050FF08BD000801401FB54FF4A060FEF775
:10230000BDF801210846FEF750FC4FF08040FEF773
:10231000A7FE41F65730ADF8080048F69F40ADF8EB
:1023200004000020ADF80600ADF80A0001A94FF046
:102330008040FEF769FF01218807FFF79BFD01221E
:1023400011469007FFF7D7FA01218807FFF7B8FA7F
:102350001C208DF8000003208DF801008DF802008C
:1023600001208DF803006846FEF78DF81FBD1CB5EF
:1023700001218807FFF76DFDF0B101A96846FFF75D
:1023800074FF0E48006840B99DF804109DF80000E5
:1023900001F098F802F0B6FF0AE00848006801284A
:1023A00006D101F09DF802F0ADFF0020034908605E
:1023B00001218807FFF75EFD1CBD00002C000020F6
:1023C00010B586B0044601211020FEF7E1FB012183
:1023D000C804FEF7EAFB4FF48060ADF81400032058
:1023E0008DF8160018208DF8170005A9F948FEF79A
:1023F00013F94FF40060ADF8140004208DF81700B5
:1024000005A9F448FEF708F901940020ADF808008A
:10241000ADF80A00ADF80C00ADF810000C20ADF8D6
:102420000E0001A9EC48FEF75AFC0121EA48FEF72C
:10243000E2FC4021E848FEF7C6FD012240F22551AA
:10244000E548FEF7E4FC34208DF8000000208DF80C
:10245000010002208DF8020001208DF8030068467B
:10246000FEF711F806B010BD10B5DC49DA4801F0EE
:1024700037F9DB49D84801F033F9DA49D64801F099
:102480002FF9D949D44801F02BF9D849D24801F0A5
:1024900027F9D749D04801F023F9D649CE4801F0B1
:1024A0001FF9D549CC4801F01BF9D449CA4801F0BD
:1024B00017F9D349C84801F013F9D249C64801F0C9
:1024C0000FF9D149C44801F00BF9D049C24801F0D5
:1024D00007F9CF49C04801F003F9CE49BE4801F0E1
:1024E000FFF8CD49BC4801F0FBF8CC49BA4801F0EF
:1024F000F7F8CB49B84801F0F3F8CA49B64801F0FB
:10250000EFF8C949B44801F0EBF810BD10B588B038
:1025100004460E2104A803F0ACF8C44B0FCB8DE8A1
:102520000F00C3484473FFF79FFF0A21C14803F01F
:10253000A0F8C148C1A10268BE4803F093FCBD49A0
:10254000684603F0A1F8BE49684603F09DF8BD490E
:10255000A14801F0C5F8BC499F4801F0C1F8B44951
:102560009D4801F0BDF869469B4801F0B9F808B0F4
:1025700010BD70B504460D466421B44803F079F8E7
:102580006421B34803F075F80B2C61D2DFE804F046
:1025900060060F18212A333C454E5700AD49AB4821
:1025A00003F0B5F8AC49AD4803F0B1F851E0AC49DF
:1025B000A64803F0ACF8AB49A84803F0A8F848E0F7
:1025C000A949A24803F0A3F8A849A44803F09FF83A
:1025D0003FE0A7499D4803F09AF8A6499F4803F0B9
:1025E00096F836E0A449994803F091F8A3499B482E
:1025F00003F08DF82DE0A249944803F088F8A14932
:10260000964803F084F824E09F49904803F07FF84F
:102610009E49924803F07BF81BE09D498B4803F0EC
:1026200076F89C498D4803F072F812E09A49874881
:1026300003F06DF89949894803F069F809E0984971
:10264000824803F064F89749844803F060F800E09A
:1026500000BF00BFA5F1610015286FD2DFE800F0D0
:102660000B141D262F38414A535C656F78818A937D
:102670009CA5AEB8B7008C49754803F048F88B4864
:1026800000688B49086070E18A49714803F03FF89F
:10269000894800688649086067E188496C4803F00A
:1026A00036F887480068824908605EE185496848D5
:1026B00003F02DF8844800687D49086055E183499E
:1026C000634803F024F882480068794908604CE1C7
:1026D00080495F4803F01BF87F4800687449086030
:1026E00043E17E495A4803F012F87D48006870497A
:1026F00008603AE17B49564803F009F87A480068D7
:102700006B49086031E17949514803F000F8784895
:1027100000686749086028E176494D4802F0F7FFF4
:1027200075480068624908601FE17449484802F032
:10273000EEFF734800685E49086016E114E17149D4
:10274000434802F0E4FF70480068594908600CE112
:102750006E493F4802F0DBFF6D480068544908604D
:1027600003E16C493A4802F0D2FF6B4800685049D7
:102770000860FAE06949364802F0C9FF6848006815
:102780004B490860F1E06749314802F0C0FF6648F4
:10279000006847490860E8E064492D4802F0B7FF47
:1027A0006348006842490860DFE06249284802F057
:1027B000AEFF614800683E490860D6E05F492448A2
:1027C00002F0A5FF5E48006839490860CDE0C2E02C
:1027D000B8E0000000100140004C00404000002024
:1027E0005400002090000020CC00002008010020B0
:1027F0004401002080010020BC010020F8010020DD
:102800003402002070020020AC020020E802002008
:1028100024030020600300209C030020D803002034
:1028200014040020500400208C040020006A0008DA
:10283000E1040020540D00203C000020256400002D
:1028400034000020C8040020D40400205E0D0020C5
:10285000C20D00201806002070080020260E00205F
:1028600054060020AC08002090060020E808002054
:10287000CC06002024090020080700206009002061
:10288000440700209C09002080070020D809002070
:10289000BC070020140A0020F8070020500A00207E
:1028A000340800208C0A0020F404002000050020D9
:1028B000C80A0020040500200C0500201005002097
:1028C0001C050020200500202C05002030050020DC
:1028D0003C050020400500204C050020500500204C
:1028E0005C050020600500206C05002070050020BC
:1028F000780500207C050020840500208805002044
:1029000090050020940500209C050020A0050020D3
:10291000AC050020B0050020BC050020C00500204B
:10292000CC050020D0050020D8050020DC050020C3
:10293000E4050020E8050020F0050020F405002053
:10294000FC050020FD49FE4802F0E1FEFD4800685C
:10295000FD49086009E0FD49F94802F0D8FEFC484D
:102960000068F949086000E000BF00BFF449F94879
:1029700002F08AFEF849F74802F086FEF748002187
:10298000016041600181F048AFF250110268F348E4
:1029900003F068FAF149F24802F076FEEE49F04899
:1029A00002F072FEEB49EF4800F09AFEEC49ED4868
:1029B00000F096FE70BDEC48002101604160704758
:1029C00010B51521E94802F054FE10BDA0F16101D7
:1029D00015297DD2DFE801F00B223950678097AED0
:1029E000C5DCFEFCFBFAF9F8F7F6F5F4F300E04974
:1029F0000968E04A12681144DD4A1160DE4909683D
:102A0000491CDD4A1160D8490968491CD64A116041
:102A1000D6490968491CD54A11601CE2D4490968A5
:102A2000D64A12681144D24A1160D3490968491C38
:102A3000D14A1160CC490968491CCB4A1160CB4985
:102A40004968491CC94A516005E2C9490968CC4A2C
:102A500012681144C64A1160C7490968491CC64A30
:102A60001160C1490968491CBF4A1160BF498968A2
:102A7000491CBE4A9160EEE1BD490968C14A12682D
:102A80001144BB4A1160BC490968491CBA4A11602B
:102A9000B5494968491CB44A5160B449C968491CE0
:102AA000B24AD160D7E1B2490968B74A1268114405
:102AB000AF4A1160B0490968491CAF4A1160AA4980
:102AC0004968491CA84A5160A8490969491C00E0A5
:102AD000C0E1A64A1161BEE1A5490968AB4A126886
:102AE0001144A34A1160A4490968491CA24A116013
:102AF0009D494968491C9C4A51609C494969491C47
:102B00009A4A5161A7E19A490968A14A1268114499
:102B1000974A116098490968491C974A116092497F
:102B20008968491C904A916090498969491C8F4A7B
:102B3000916190E18E490968964A126811448C4A65
:102B400011608D490968491C8B4A11608649896862
:102B5000491C854A91608549C969491C834AD161EC
:102B600079E1834909688C4A12681144804A1160EE
:102B700081490968491C804A11607B498968491C60
:102B8000794A91607949096A491C784A116262E17F
:102B900077490968814A12681144754A116076497B
:102BA0000968491C744A11606F49C968491C6E4A1A
:102BB000D1606E49496A491C6C4A51624BE132E16D
:102BC0001AE102E1A7E08FE077E05FE047E02FE065
:102BD00017E0FFE766490968714A12681144644AC0
:102BE000116065490968491C634A11605E49C968FA
:102BF000491C5D4AD1605D49896A491C5B4A916202
:102C000029E15B490968674A12681144584A116012
:102C100059490968491C584A11605349C968491CF7
:102C2000514AD1605149C96A491C504AD16212E1E6
:102C30004F4909685C4A126811444D4A11604E4977
:102C40000968491C4C4A116047490969491C464AB0
:102C500011614649096B491C444A1163FBE0444930
:102C60000968524A12681144414A11604249096890
:102C7000491C414A11603C490969491C3A4A1161A1
:102C80003A49496B491C394A5163E4E038490968BB
:102C9000474A12681144364A116037490968491C8D
:102CA000354A116030490969491C2F4A11612F4981
:102CB000896B491C2D4A9163CDE02D4909683D4A35
:102CC000126811442A4A11602B490968491C2A4A92
:102CD000116025494969491C234A51612349C96B3F
:102CE000491C224AD163B6E021490968324A126878
:102CF00011441F4A116020490968491C1E4A11608D
:102D000019494969491C184A51611849096C491CFB
:102D1000164A11649FE016490968284A126811444E
:102D2000134A116014490968491C134A11600E497D
:102D30004969491C0C4A51610C4941E000060020D8
:102D4000C20D002008060020C80A00200C06002042
:102D5000140600205E0D0020340000208A0E0020A2
:102D6000260E0020004C0040340D0020940E002060
:102D70003C00002000050020CC0A00200C050020AB
:102D80001C0500202C0500203C0500204C050020DF
:102D90005C0500206C0500207805002084050020DB
:102DA000900500209C050020AC050020BC050020FB
:102DB000CC050020D8050020E4050020F005002007
:102DC000496C491CF84A516445E0F8490968F84AD9
:102DD00012681144F54A1160F6490968491CF54A20
:102DE0001160F5498969491CF34A9161EE49896C82
:102DF000491CED4A91642EE0EC490968EF4A1268DB
:102E00001144EA4A1160EB490968491CE94A11601A
:102E1000E9498969491CE84A9161E349C96C491C3F
:102E2000E14AD16417E0E1490968E54A12681144B2
:102E3000DE4A1160DF490968491CDE4A1160DE493B
:102E40008969491CDC4A9161D749096D491CD64AF8
:102E5000116500E000BF00BF70472DE9F04FCDB015
:102E600005468B4616469946569C0E2146A802F00A
:102E700000FCD44991E80D00C96842AF0DC74591E7
:102E80000E213EA802F0F5FBCE4B10330FCB3AAF2C
:102E90000FC70E2136A802F0ECFBCA4B2033D3E952
:102EA0000020D3E9021333AF0BC732922022C54969
:102EB00030312AA802F0C4FB0E2126A802F0D9FB6B
:102EC000C04B50330FCB22AF0FC70E211EA802F00C
:102ED000D0FBBC4B6033D3E90020D3E902131BAF16
:102EE0000BC71A920E2116A802F0C3FBB54B703324
:102EF0000FCB12AF0FC70E210EA802F0BAFBB14BD9
:102F00008033D3E90020D3E902130BAF0BC70A9239
:102F10000E2106A802F0ADFBAA4B90330FCB02AFF7
:102F20000FC729461AA802F0AFFBA7491AA802F05A
:102F3000ABFB594612A802F0A7FBA34912A802F066
:102F4000A3FB31460AA802F09FFB9F490AA802F0A2
:102F50009BFB494602A802F097FB9B4902A802F09E
:102F600093FB204602F05BFC984A994BCDE90001A7
:102F700002F0E3FB074602F063FC8246A4EB0A0082
:102F80004B90204602F04BFC924A934BCDE9000156
:102F900002F0D3FB074602F053FC4A900A218F4807
:102FA00002F067FB5246AFF26C718C4802F05AFF98
:102FB0008A4942A802F068FB834942A802F064FBF8
:102FC000874800210160416001812246AFF294717F
:102FD00002F048FF82493AA802F056FB7A493AA823
:102FE00002F052FB0A217F4802F043FBAFF2B471BA
:102FF0007C484B9A02F036FF7A4932A802F044FB33
:10300000714932A802F040FB77480021016041601D
:103010000181AFF2D8714A9A02F024FF724922A8C6
:1030200002F032FB684922A802F02EFB1AA96F4871
:1030300000F056FB12A96D4800F052FB0AA96B483C
:1030400000F04EFB02A9694800F04AFB42A967481C
:1030500000F046FB3AA9654800F042FB32A96348FC
:1030600000F03EFB2AA9614800F03AFB22A95F4824
:1030700000F036FB4DB0BDE8F08F4F4909685C4A5F
:1030800011605C4A11604C4949685B4A11605B4AB7
:10309000116000215A4A11605A4A11605A4A11605F
:1030A0005A4A116001202CE0434951F82010514A3E
:1030B000126891420EDB4F490968504A116053492A
:1030C0000968514A11603C4951F82010494A116081
:1030D0004E490860384951F82010454A126891421B
:1030E0000EDC43490968444A116046490968444A6C
:1030F0001160314951F820103D4A11604149086082
:10310000401C0728D0DB00202AE02B4951F8201072
:103110003A4A126891420DDB274951F82010354A8E
:103120001268914206D0244951F82010334A1160A8
:1031300035490860204951F820102F4A1268914201
:103140000DDC1D4951F82010294A1268914206D021
:10315000194951F82010284A116029490860401C7B
:103160000728D2DB704708B5FFF787FF27480068BC
:10317000072866D2DFE800F004090E13565B6000F2
:103180002349244802F0C3FA5CE02349214802F0B5
:10319000BEFA57E021491F4802F0B9FA52E020492F
:1031A0001C4802F0B4FA4DE0940E00203C000020D0
:1031B000FC050020CC0A0020340D00200806002069
:1031C00014060020106A000834000020B81E85EBA9
:1031D00051B8EE3FA4703D0AD7A3F03FE80E00209F
:1031E000F20E0020FC0E0020060F0020004C0040D4
:1031F000E00A0020D00A0020E80A0020D80A0020B7
:10320000EC0A0020E40A0020DC0A0020D40A002096
:10321000F00A0020100F0020F70A0020FE0A00200C
:10322000030B0020D249D34802F071FA0AE0D249D8
:10323000D04802F06CFA05E0D049CE4802F067FAB7
:1032400000E000BF00BFCE480068072828D2DFE8B2
:1032500000F004090E13181D2200CA49CA4802F0E2
:1032600056FA1EE0C949C84802F051FA19E0C849A7
:10327000C54802F04CFA14E0C649C34802F047FAC8
:103280000FE0BB49C04802F042FA0AE0BA49BE4822
:1032900002F03DFA05E0B949BB4802F038FA00E017
:1032A00000BF00BFBC480068072828D2DFE800F054
:1032B00004090E13181D2200B249B84802F027FA7B
:1032C0001EE0B249B54802F022FA19E0B049B3480D
:1032D00002F01DFA14E0AF49B04802F018FA0FE00E
:1032E000A349AE4802F013FA0AE0A349AB4802F042
:1032F0000EFA05E0A149A94802F009FA00E000BF72
:1033000000BFA7480068072828D2DFE800F00409BA
:103310000E13181D22009B49A24802F0F8F91EE086
:103320009A49A04802F0F3F919E099499D4802F042
:10333000EEF914E097499B4802F0E9F90FE08C4957
:10334000984802F0E4F90AE08B49964802F0DFF968
:1033500005E08A49934802F0DAF900E000BF00BFB7
:10336000914800688F4B8D4A874900908148FFF74C
:1033700074FD08BD10B504468C48847301468C4822
:1033800000F0AEF98B498A4800F0AAF98A498848CA
:1033900000F0A6F98949864800F0A2F988498448D6
:1033A00000F09EF910BD10B50446864884730146AE
:1033B0007F4800F095F984497D4800F091F98349F0
:1033C0007B4800F08DF98249794800F089F98149FC
:1033D000774800F085F910BD10B504467E48447367
:1033E0000146734800F07CF97C49714800F078F997
:1033F0007B496F4800F074F97A496D4800F070F924
:1034000010BD08B578480068009040F22551684822
:10341000FDF7E2FD002854D06548FDF75DFDC1B21F
:103420007248734A1268815471480068401C7049A0
:10343000086008460068401E6C49085C7A2803D082
:103440006B480068642825D168480078582803D064
:103450006648007856280AD1002165480068401E59
:10346000624A11541146684600F074F90BE05F4857
:1034700000785A2807D100215D480068401E5B4A49
:103480001154FFF770FE0020594908606421574825
:1034900002F0EFF85548007856280ED053480078CF
:1034A00058280AD0514800785A2806D000205049A0
:1034B000086064214D4802F0DCF840213C48FDF7EB
:1034C00082FD08BD70B504460D462B46224649498B
:1034D000494802F0C7FC484948A000F00DFD70BD06
:1034E00000B595B05248006D5149C96C504A926C74
:1034F0004F4B5B6CCDE91032CDE912104C48006C9B
:103500004B49C96B4A4A926B494B5B6BCDE90C3214
:10351000CDE90E104648026BC16A806A444B5B6A73
:10352000CDE90830CDE90A124148016AC2698069D3
:103530003F4B5B69CDE90430CDE906213C48016988
:10354000C0683B4A92683A4B5B68CDE90032CDE9EE
:10355000020137480368144836490268264802F0D9
:1035600081FC254925A000F0C7FC15B000BD000076
:10357000080B0020100F00200D0B0020120B002064
:10358000DC0A0020F00A0020740F0020F70A002057
:10359000FE0A0020030B0020E40A0020D80F0020C0
:1035A000EC0A00203C1000203C000020170B0020FB
:1035B000004C00402B0B0020370B0020440B002058
:1035C000510B00205E0B0020720B00207E0B0020B0
:1035D0008B0B0020980B0020A50B0020B80B0020BF
:1035E000C40B0020D00B0020B06A0008080C00209B
:1035F000300000203C6C00086C0C0020246F632F0E
:10360000646576696365732F70726F647563745F48
:103610006465766963652F7379732F70726F706557
:1036200072746965732F7265706F727400000000A8
:10363000940E0020486B000810B586B004460121A6
:103640000820FDF7A5FA01218804FDF7AEFA18203D
:103650008DF817004FF48060ADF8140003208DF84A
:10366000160005A9BF48FCF7D7FF04208DF8170006
:103670004002ADF8140005A9BA48FCF7CDFF01944B
:103680000020ADF810000C20ADF80E000020ADF8C1
:103690000C00ADF80A00ADF8080001A9B248FDF72A
:1036A0001EFB0121B048FDF7A6FB4021AE48FDF707
:1036B0008AFC012240F22551AB48FDF7A8FB2720E8
:1036C0008DF8000001208DF8030000208DF8010026
:1036D00002208DF802006846FCF7D5FE06B010BD4A
:1036E00070B505460C460BE021782846FDF7F0FB47
:1036F000641C00BF40212846FDF758FC0028F9D083
:1037000020780028F0D170BD10B54FF41650FFF7A7
:1037100093FF96A19448FFF7E3FF4FF4FA70FEF78A
:10372000E3FB97A19048FFF7DBFF4FF4FA70FEF739
:10373000DBFB97A18C48FFF7D3FF4FF4FA70FEF73D
:10374000D3FB97A18848FFF7CBFF4FF47A70FEF7C1
:10375000CBFB10BD30B58FB004460D462A2104A81E
:1037600001F087FF914903C9CDE902018F48083074
:1037700000680190214602A801F086FF294602A8B0
:1037800001F082FF01A902A801F07EFF02A976489C
:10379000FFF7A6FF0FB030BD10B540F225517248BB
:1037A000FDF71AFC00286ED06F48FDF795FBC1B2FB
:1037B0007F48804A126881547E480068401C7D49D9
:1037C000086008460068401E7949085CFF2803D05D
:1037D0007848006832287DD175480078F1287AD180
:1037E00073484078DD28FAD12DE0714972480068AD
:1037F000C01D095C7148704A1268815402466E48C7
:103800000068C01D115C6E48FDF762FB00BF4021DF
:103810006B48FDF7CBFB0028F9D067480068401CD7
:103820006549086067480068401C664908600846AA
:103830000068B0F5FA7F06D10020086062A16048F8
:10384000FFF74EFF06E05A495B480068C01D085C60
:10385000FF28CAD100BF59480078592807D1032052
:1038600000F006F955494878FFF7B6FD5CE053488B
:103870000078582808D1052000F0FAF84F49487818
:10388000FFF791FD50E06CE04C480078562804D1D9
:103890004A494878FFF76EFD46E0484800783128ED
:1038A00013D04648007832280FD044480078332897
:1038B0000BD042480078342807D04048007835289B
:1038C00003D03E48007836282ED1042000F0D0F8EE
:1038D000002001E036E02EE03E490860FFF770F876
:1038E000FFF769F8012405E03449085DFFF76EF839
:1038F000601CC4B20B2CF7DB30490878FEF706FEDB
:10390000012406E02D48015D2046FEF732FE601CD2
:10391000C4B2314800688442F4DD00202E490860BA
:1039200001202E49086000BF002023490860322191
:10393000224801F09EFE00201E49086032211C48EA
:1039400001F097FE1A480078F12806D000201949A6
:1039500008603221164801F08CFE20210248FDF754
:1039600032FB10BD000C01400048004041542B4E7A
:10397000414D454A44592D32344D0D0A0000000096
:1039800041542B4E45544944363936380D0A00000F
:1039900041542B4D41444452313131310D0A000024
:1039A00041542B52455345540D0A0000B46A000897
:1039B000A0100020E00B0020E40B0020D21000201B
:1039C00000380140E80B0020CBC0D1ADBBB7A3A1AC
:1039D000000000003C000020CC0A00202C00002049
:1039E0002DE9F0418EB080460E4600270024304677
:1039F00001F072FEC5B2FD208DF8040000208DF8A4
:103A00000500E81CC0B28DF8060001208DF8070003
:103A100040EA0810C0B28DF8080000BF03E001A81A
:103A2000005D4740641C052CF9D3002402E0305DA2
:103A30004740641CAC42FAD32A4631460DF10900D6
:103A400001F0FEFD681D01A90F54A81DC1B201A817
:103A500000F0D9F80EB0BDE8F08170B504462046FC
:103A600001F03AFEC5B22946204600F0CCF870BD00
:103A700010B50446062C1DD2DFE804F01C03080D27
:103A800012170EA10020FFF7ABFF14E012A10020D7
:103A9000FFF7A6FF0FE018A10020FFF7A1FF0AE043
:103AA0001CA10020FFF79CFF05E021A10020FFF7EB
:103AB00097FF00E000BF00BF10BD00005B7631360D
:103AC0005D5B6D315D5B74355DD6F7BBFAB3F5CAEE
:103AD000BCBBAFCDEAB3C9005B7631365D5B6D31FF
:103AE0005D5B74355DD2D1BAF4BDD0B2CDCCFCBB38
:103AF000FAC6F7C8CB0000005B7631365D5B6D31EE
:103B00005D5B74355DCAD5B5BDC8CBB9A4BAF4BD8B
:103B1000D00000005B7631365D5B6D315D5B7435E6
:103B20005DC4FAD3D0D2BBB8F6D0C2B6A9B5A50051
:103B30005B7631365D5B6D315D5B74355DCAD5B5E5
:103B4000BDCAD5B2CDBAF4BDD00000007FB50546E0
:103B50000C4601210220FDF728F8ADF80450ADF81D
:103B600000400020ADF80600ADF802006946184894
:103B7000FDF74AFB012211461548FDF7BCFE012165
:103B80001348FDF79DFE1D208DF80C0000208DF8D8
:103B90000D0002208DF80E0001208DF80F0003A803
:103BA000FCF771FC7FBD10B501210948FEF751F902
:103BB00068B10848008840F40040064908800121A7
:103BC0000348FEF757F900210148FDF779FE10BDC3
:103BD00000040040F40B002000BF704700BF554AAE
:103BE000128802F04002002AF9D0C2B2514B9A80EA
:103BF000704700BF4F49098801F040010029F9D002
:103C00004C498880704730B502460B46002405E0D9
:103C100012F8010BFFF7EDFF601CC4B29C42F7DB0A
:103C200030BD10B586B0044601213020FCF7B0FF4E
:103C300001210805FCF7B9FF4FF48050ADF81400DE
:103C400003208DF8160018208DF8170005A93A48B2
:103C5000FCF7E2FC0420ADF814008DF8170005A96C
:103C60003648FCF7D9FC35208DF8000003208DF88C
:103C700001008DF8020001208DF803006846FCF772
:103C800002FC01940020ADF80800ADF80A00ADF880
:103C90000C00ADF810000C20ADF80E0001A925486D
:103CA000FDF71DF8012240F225512248FDF7AFF83B
:103CB00001212048FDF79FF841F61F416320FFF7DF
:103CC00045FF00201E49088000211E48FDF7F8FD31
:103CD00006B010BD10B540F225511648FDF77CF92D
:103CE000F8B11448FDF7F8F8C4B21548008800F49C
:103CF0000040B0B912480088C82813DA00211148E2
:103D0000FEF772F80E48008818B901210D48FDF73A
:103D1000D7FD0B4801880088401C094A10800A48DA
:103D2000445405E00648008840F4004004490880F7
:103D300010BD000000500040001001400014014080
:103D4000F40B0020000400400411002010B54FF4D3
:103D5000A060FCF793FBFEF791F84FF41650FEF7C6
:103D600007F94FF4E130FEF756F94FF41650FEF71D
:103D700027FBFFF7C9FC01F042FB03E04FF4FA70A8
:103D8000FEF7B2F800F026F80028F7D1FEF79BFA0C
:103D9000FEF7B2FA4FF41650FFF743FF0A20FEF782
:103DA000A3F806A10A48FEF7A0F910BDFFF7CEFF61
:103DB0000120FFF75DFE00BFFEE7000020486172B2
:103DC000647761726520696E6974204F4B0D0A003B
:103DD0000038014030B58BB0002007900890099062
:103DE0000A900125D3A0DB4BDBA2DFA10090EA48BB
:103DF000FEF77BF907A8002102910391CDE9041099
:103E000000912B02CBA20191D249D3A000F025FC56
:103E1000002842D1089A91B2079801F0B7FAFA2027
:103E200001F0CBFA0446002C33D0204600F0E0FB32
:103E300002282ED1204600F075FD062823D2DFE8A7
:103E400000F003090E13181DD4A1D348FEF74DF955
:103E500000251DE0D6A1D048FEF747F918E0DBA108
:103E6000CD48FEF742F913E0E1A1CB48FEF73DF95A
:103E70000EE0E7A1C848FEF738F909E0EDA1C64811
:103E8000FEF733F904E0F6A1C348FEF72EF900BFB0
:103E900000BF07A800F064FB03E0F8A1BE48FEF7EE
:103EA00024F928460BB030BD70B586B004460D46E7
:103EB00000260020029003900490059007E054F83B
:103EC0002620F7A1B448FEF710F9701CC6B2AE4226
:103ED000F5DB02A82B46224602210090142000F0B8
:103EE00026FF38B9039A91B2029801F04FFA02A85E
:103EF00000F036FB06B070BD70B588B005460C46C4
:103F00000020049005900690079023462A46EAA1D7
:103F1000A148FEF7EAF8204601F0DEFB064604A8B9
:103F2000012100220223CDE90032CDE902103346FF
:103F3000224629460A2000F004FD38B9059A91B2BC
:103F4000049801F023FA04A800F00AFB08B070BD41
:103F50002DE9F04190B0074600200C900D900E9096
:103F60000F900B900A90099008900026079000256A
:103F700000248046384600F03BFB0646F01E0D2824
:103F800074D2DFE800F02B77809AB673BF73CD73DD
:103F90007373070008AB0BAA0AA9384600F03FFE6E
:103FA0000546D5B9BDF820000090CBA17A48DDE9DF
:103FB0000A23FEF79AF80CAADDE90A0100F075FE63
:103FC00058B9CEA17448FEF790F80D9A91B20C98AA
:103FD00001F0DCF90CA800F0C3FA53E2CD4807A9C0
:103FE00008AA0BABCDE90021029009AA0AA938461C
:103FF00000F0C5FF0546002D3BD1BDF820000B9910
:10400000CDE90010BDF82430C3A163480A9AFEF739
:104010006CF89DF81C00012802D0022827D112E07C
:104020000CA9BC48008801F086F858B9C9A15A48C3
:10403000FEF75BF80D9A91B20C9801F0A7F90CA865
:1040400000F08EFA14E00CA9B248008801F0A6F83E
:1040500058B9C6A15048FEF748F80D9A91B20C988D
:1040600001F094F90CA800F07BFA01E007E200BF30
:1040700000BF07E2384601F082F818B9C1A14648EE
:10408000FEF733F8FEE1384601F0ACF8A0B9C5A15F
:104090004148FEF72AF80CA90A2001F0B2F858B9F5
:1040A000C6A13D48FEF721F80D9A91B20C9801F097
:1040B0006DF90CA800F054FAE4E1964801883846FE
:1040C00001F0C3F8A0B9C3A13348FEF70EF80CA95C
:1040D0000A2001F0CCF858B9C4A12F48FEF705F822
:1040E0000D9A91B20C9801F051F90CA800F038FA31
:1040F000C8E1384601F0DFF818B9C3A12648FDF73A
:10410000F4FFBFE1384600F091FE20B9C4A1224877
:10411000FDF7EBFF03E0C9A11F48FDF7E6FFB1E1A2
:10412000384600F023FF20B9CBA11B48FDF7DDFF87
:10413000A4E19FE170726F647563745F6465766972
:1041400063655F305F305F32303232303330383069
:1041500036000000986C000870726F647563745FBD
:1041600064657669636500004F6E654E65745F44F3
:1041700065764C696E6B0D0A50524F49443A2025C2
:10418000732C09415549463A2025732C094445565C
:1041900049443A25730D0A00003801405469707390
:1041A0003A09C1ACBDD3B3C9B9A60D0A00000000DD
:1041B0005741524E3A09C1ACBDD3CAA7B0DCA3BA2D
:1041C000D0ADD2E9B4EDCEF30D0A00005741524E06
:1041D0003A09C1ACBDD3CAA7B0DCA3BAB7C7B7A868
:1041E000B5C4636C69656E7469640D0A00000000F3
:1041F0005741524E3A09C1ACBDD3CAA7B0DCA3BAED
:10420000B7FECEF1C6F7CAA7B0DC0D0A0000000069
:104210005741524E3A09C1ACBDD3CAA7B0DCA3BACC
:10422000D3C3BBA7C3FBBBF2C3DCC2EBB4EDCEF37D
:104230000D0A00005741524E3A09C1ACBDD3CAA77E
:10424000B0DCA3BAB7C7B7A8C1B4BDD328B1C8C83A
:10425000E7746F6B656EB7C7B7A8290D0A00000039
:104260004552523A09C1ACBDD3CAA7B0DCA3BACEFD
:10427000B4D6AAB4EDCEF30D0A0000005741524E59
:104280003A094D5154545F5061636B6574436F6ECE
:104290006E656374204661696C65640D0A000000F8
:1042A00053756273637269626520546F7069633A13
:1042B0002025730D0A0000005075626C6973682038
:1042C000546F7069633A2025732C204D73673A2030
:1042D00025730D0A00000000636D6469643A2025AF
:1042E000732C207265713A2025732C207265715FE2
:1042F0006C656E3A2025640D0A00000054697073E5
:104300003A0953656E6420436D64526573700D0AFB
:1043100000000000F60B0020746F7069633A2025DE
:10432000732C20746F7069635F6C656E3A2025642E
:104330002C207061796C6F61643A2025732C207099
:1043400061796C6F61645F6C656E3A2025640D0A5B
:1043500000000000546970733A0953656E64205080
:1043600075626C69736841636B0D0A005469707300
:104370003A0953656E64205075626C6973685265C2
:10438000630D0A00546970733A094D51545420501A
:1043900075626C6973682053656E64204F4B0D0A1B
:1043A00000000000546970733A0952657620507518
:1043B000626C6973685265630D0A0000546970731A
:1043C0003A0953656E64205075626C697368526572
:1043D0006C0D0A00546970733A0952657620507565
:1043E000626C69736852656C0D0A000054697073E1
:1043F0003A0953656E64205075626C697368436F47
:104400006D700D0A00000000546970733A0952651E
:1044100076205075626C697368436F6D700D0A0089
:10442000546970733A094D51545420537562736343
:1044300072696265204F4B0D0A0000005469707369
:104440003A094D5154542053756273637269626521
:10445000204572720D0A0000546970733A094D517B
:10446000545420556E537562736372696265204FB0
:104470004B0D0A001BA12348FDF737FE02E04FF069
:10448000FF3500BF00BF00F03DFF681C10B910B041
:10449000BDE8F0817D210B9801F014F90446A4B128
:1044A000681C90B1641C06E014F8012B404608F12A
:1044B000010804A90A542078302802DB2078392822
:1044C000F2DD04A801F02CF980460F2E01D0032E56
:1044D00005D10A9802F036FA0B9802F033FA00BFC1
:1044E000D5E70000546970733A094D515454205572
:1044F0006E537562736372696265204572720D0A4C
:10450000000000000038014070B504460E4600254A
:10451000206898B901202073304602F03BFA2060F1
:104520002068E0B100206060A66003E00020216800
:1045300048556D1CA068A842F8D810E002202073EE
:1045400003E00020216848556D1CA068A842F8D8F7
:1045500000206060A068B04201D20020206070BDE1
:1045600010B50446207B012802D1206802F0EAF948
:10457000002020606060A060207310BD0246002310
:1045800001230DE002F07F000870D2092AB10878FB
:1045900040F080000870491C01E0184670475B1C21
:1045A000042BEFDD4FF0FF30F8E7F0B504460D4681
:1045B0002646012300201060002114E0775C07F0FC
:1045C0007F07106807FB03001060705C00F080003C
:1045D00008B9481CF0BDDB01B3F5001F02D36FF032
:1045E0000100F7E7491CA942E8DB4FF0FF30F1E793
:1045F000F8B50446FF2720780511012D01DB0E2DAB
:1046000001DD3846F8BD032D24D1002000906A4614
:104610000421601CFFF7C9FF2044461C00980228B3
:1046200003D3207800F0010008B1FF20EAE770789A
:10463000317840EA0120801C0099884201D9FF208E
:10464000E0E7F8A1B01C01F02BF808B10F2700E05B
:10465000032700E02F463846D4E72DE9FF4F83B00B
:1046600082468B469146159C0025002002900F271C
:104670000190484601F030F80FFA80F8B9F1000FC8
:1046800003D1012007B0BDE8F08F08F102003844E3
:1046900087B2109808B145F00205129878B145F03C
:1046A0000405129801F018F8C0B20290139801F0B6
:1046B00013F801460298001D0844384487B2119847
:1046C00020B1012804D0022808D104E000BF07E08F
:1046D00045F00C0504E045F0140501E00220D1E7A7
:1046E00000BF149808B145F02405BAF1000F02D0BC
:1046F000BBF1000F01D10320C4E745F0C0055046CF
:1047000000F0EAFF0646584600F0E6FF3044001D80
:10471000384487B239462046FFF7F6FE206808B9CC
:104720000420AFE73946206800F0A3FF102162683B
:10473000501C606020688154D4E90023D118781F90
:10474000FFF71CFF00B201900198002804DA204610
:10475000FFF706FF052095E761680198084460604F
:1047600000216268501C60602068815404216268E6
:10477000501C6060206881544D216268501C60604C
:104780002068815451216268501C60602068815407
:1047900054216268501C6060206881546268501C1B
:1047A00060602068815404216268501C6060206849
:1047B00081546168481C6060206845540698010A6D
:1047C0006268501C6060206881540698C1B26268BB
:1047D000501C606020688154C8F307216268501C37
:1047E0006060206881546268501C6060206800F836
:1047F0000280D4E9001288184246494600F073FF4F
:1048000060684044606005F00400B8B30026139867
:1048100008B986A01390129800F05EFF86B2310AA4
:104820006268501C6060206881546268501C60603F
:1048300020688654D4E9001288183246129900F094
:1048400052FF606830446060139800F045FF86B204
:10485000310A6268501C6060206881546268501C94
:10486000606020688654D4E9001288183246139993
:1048700000F039FF60683044606000BF05F08000E0
:10488000C8B1504600F028FF86B2310A6268501C59
:104890006060206881546268501C606020688654A3
:1048A000D4E9001288183246514600F01CFF6068B7
:1048B0003044606000BF05F04000C8B1584600F0C9
:1048C0000BFF86B2310A6268501C60602068815418
:1048D0006268501C606020688654D4E90012881811
:1048E0003246594600F0FFFE60683044606000BF09
:1048F0000020C7E610B5044602212046FFF704FE5B
:10490000206808B9012010BDE0216268501C606079
:104910002068815400216268501C606020688154C6
:104920000020F0E701464878022801D001207047B6
:10493000887810B18878012801D1C878F7E7FF207E
:10494000F5E72DE9FF4F83B0834617469946139C40
:10495000002500260020029001908046BBF1000F48
:1049600003D1012007B0BDE8F08F00260AE00498CB
:10497000805D232803D00498805D2B2801D102207C
:10498000F0E7761C0498805D0028F0D148F03008EC
:10499000119808B148F0010806EB0900851C109831
:1049A00020B1012804D002280AD105E000BF09E0A7
:1049B00048F00208AD1C05E048F00408AD1C01E019
:1049C0000320CFE700BF67B33878022821D14FF02A
:1049D000000A00BF50460AF1010A385C7D28F9D16F
:1049E000AAF1030A0AF1070002900298A9EB000A53
:1049F000E81CA0EB0A012046FFF786FD206808B9F5
:104A00000420AFE7EA1CA2EB0A01206800F031FEA7
:104A10001FE0691D2046FFF777FD206840B904209C
:104A2000A0E70AE024637265710000000000000046
:104A3000691D206800F01DFE0BE0691D2046FFF790
:104A400063FD206808B904208CE7691D206800F028
:104A500010FE6168481C6060206800F80180D4E99D
:104A6000000281182846FFF789FD0190019800286F
:104A700004DA2046FFF774FD052073E761680198AA
:104A800008446060C6F307216268501C60602068BB
:104A900081546268501C606020688654D4E900121A
:104AA00088183246049900F01EFE60683044606049
:104AB000109860B14FEA1B216268501C606020684A
:104AC00081546268501C6060206800F802B0C7B171
:104AD000387802280BD1D4E9001288183946029A96
:104AE00000F0AEFD616802980844606009E0D4E916
:104AF000001288184A46394600F0A2FD6068484412
:104B0000606000202EE72DE9FF4107460D469046E4
:104B10001E460A9C01200021CDE90001EB1C0A463B
:104B2000FAA1CDE902040A20FFF70BFF88B96168FA
:104B3000481C606020684654C5F307216268501C19
:104B40006060206881546268501C606020688554F1
:104B500003E0012004B0BDE8F0810020FAE72DE970
:104B6000F04F85B080460D46914601200490002705
:104B7000002600244FF0000A404600F0ADFD00F191
:104B80000D0B584601F006FF07461FB9049805B003
:104B9000BDE8F08F4246DEA1384601F063F93846A1
:104BA00000F09AFDC6B2F01D00EB050AAAEB050065
:104BB00001F0F0FE044624B9384601F0C3FE049823
:104BC000E5E70220207000206070A670324639466A
:104BD000E01C00F035FD290EF01C2154C5F30741FF
:104BE000301D2154C5F30721701D2154B01D2554DB
:104BF00001200021CDE9000153462246C3A1CDE9A1
:104C000002090A20FFF79DFE08B9002004903846EB
:104C100001F098FE204601F095FE0498B7E72DE9D3
:104C2000F84380460C4615461E462F2108F1060023
:104C300000F048FD07460020009017B90120BDE8AC
:104C4000F8837F1C6A46042108F10100FFF7ADFCE0
:104C5000252001F09FFE2060206808B90220EEE7C1
:104C60002521206800F005FD24223946206800F047
:104C7000E7FC243700982C3830803188481C01F03C
:104C800089FE2860286820B9206801F05BFE0320B7
:104C9000D5E73288511C286800F0EBFC3288394691
:104CA000286800F0CDFC0020C9E72DE9FF5F07462A
:104CB0000D469046384600F00FFD86B2284600F0BB
:104CC0000BFD1FFA80FA4FF00009F01D01F062FEA3
:104CD00004461CB9012004B0BDE8F09FF11D204638
:104CE00000F0C7FC8EA0016821608088A080324659
:104CF0003946204600F0F7FC284600F0EDFC8346DC
:104D00000120002100915B462A46CDE9020801916D
:104D100021460A20FFF715FE10B94FF0000901E007
:104D20004FF00109204601F00DFE4846D3E72DE97A
:104D3000FF5F8046174699460E9C0026B246B34652
:104D40000025B8F1000F03D1012004B0BDE8F09FA9
:104D50000BE057F8250008B90220F6E757F82500C0
:104D600000F0BAFC0644681CC5B24D45F1DB09EB06
:104D70004900801C00EB060A0AF105012046FFF7F6
:104D8000C3FB206808B90320DFE782216268501C5A
:104D9000606020688154D4E9000281185046FFF712
:104DA000EDFB0FFA80FBBBF1000F04DA2046FFF7A2
:104DB000D7FB0420C9E76068584460604FEA1821B7
:104DC0006268501C6060206881546268501C60609A
:104DD000206800F80280002524E057F8250000F044
:104DE0007BFC0646C6F307216268501C60602068A1
:104DF00081546268501C606020688654D4E90023A6
:104E0000D01857F82510324600F06DFC6068304429
:104E100060600198C1B26268501C60602068815473
:104E2000681CC5B24D45D8DB00208EE70146FF2047
:104E30008A78A2B9CA78142A11D10A7932B1012A22
:104E400005D0022A04D0802A06D103E000BF00BFAB
:104E5000002003E0012001E0022000BF00BF7047F6
:104E60002DE9F05F80460F4691461C460026B2466B
:104E7000B3460025B8F1000F02D10120BDE8F09F34
:104E80000BE057F8250008B90220F7E757F825008E
:104E900000F022FC0644681CC5B24D45F1DB02203F
:104EA00000EB490000EB060A0AF105012046FFF776
:104EB0002BFB206808B90320E0E7A2216268501CA0
:104EC000606020688154D4E9000281185046FFF7E1
:104ED00055FB0FFA80FBBBF1000F04DA2046FFF709
:104EE0003FFB0420CAE76068584460604FEA18211D
:104EF0006268501C6060206881546268501C606069
:104F0000206800F8028000252CE000002464700076
:104F10007B2264735F6964223A222573227D00003C
:104F200024637273702F000057F8250000F0D4FB43
:104F30000646C6F307216268501C606020688154F1
:104F40006268501C606020688654D4E90023D01841
:104F500057F82510324600F0C6FB606830446060A8
:104F6000681CC5B24D45DFDB002087E70146012004
:104F70008A781AB9CA781E2A00D1002070472DE914
:104F8000FC5F81460D4614461E46DDE90C8B99F800
:104F9000000000F00F0A002001900AF008000090C5
:104FA000CAF341008BF8000001AA042109F10100B5
:104FB000FFF7FBFA4844471C0198022802D30AF085
:104FC000010010B1FF20BDE8FC9F7878397840EAF5
:104FD000012020802088801C0199884201D9FF206F
:104FE000F1E7AFF2C051B81C00F05AFB08B10F2036
:104FF000E9E79BF8000020B101283DD0022877D1D5
:105000003BE0009808B1FF20DDE72188481C01F053
:10501000C1FC2860286808B9FF20D4E72288511C09
:10502000286800F026FB2288B91C286800F008FBDD
:105030000198801E2188401AA8F80000B8F80010D6
:10504000481C01F0A7FC3060306820B9286801F0E6
:1050500079FCFF20B7E7B8F80020511C306800F059
:1050600008FBB8F80020B4F800C0BB1C0CEB03012F
:10507000306800F0E5FA4FE000BF2088801C0199FD
:10508000884201D9FF209EE72088C01C395C208817
:10509000801C385C41EA00210E9801800E9808B906
:1050A000FF2090E72188481C01F074FC28602868E4
:1050B00008B9FF2087E72288511C286800F0D9FA38
:1050C0002288B91C286800F0BBFA0198001F2188CB
:1050D000401AA8F80000B8F80010481C01F05AFC6B
:1050E0003060306828B9286801F02CFCFF206AE79E
:1050F00010E0B8F80020511C306800F0BAFAB8F897
:105100000020B4F800C03B1D0CEB0301306800F038
:1051100097FA01E0FF2056E700BF2B21284600F058
:10512000D1FA20B92321284600F0CCFA08B1FF209B
:1051300049E7002047E770B505460C4604212046A4
:10514000FFF7E2F9206808B9012070BD40216268CC
:10515000501C60602068815402216268501C6060AD
:105160002068815429126268501C60602068815454
:105170006268501C6060206885540020E5E70146A5
:105180004878022801D001207047887820B9C87873
:105190000A2801D10020F7E70120F5E770B50546A0
:1051A0000C4604212046FFF7AFF9206808B901201A
:1051B00070BD50216268501C6060206881540221DB
:1051C0006268501C60602068815429126268501C1B
:1051D0006060206881546268501C6060206885545B
:1051E0000020E5E701464878022801D001207047F9
:1051F000887820B9C8780A2801D10020F7E7012073
:10520000F5E770B505460C4604212046FFF77CF90A
:10521000206808B9012070BD62216268501C60607E
:105220002068815402216268501C606020688154AB
:1052300029126268501C6060206881546268501CAA
:105240006060206885540020E5E702465078022817
:1052500001D0012070479078B0EB112F05D1D078A4
:10526000CBB2984201D10020F4E70120F2E770B5FB
:1052700005460C4604212046FFF746F9206808B988
:10528000012070BD70216268501C606020688154EC
:1052900002216268501C6060206881542912626893
:1052A000501C6060206881546268501C60602068F7
:1052B00085540020E5E701464878022801D0012006
:1052C0007047887820B9C8780A2801D10020F7E70C
:1052D0000120F5E710B5044602212046FFF714F936
:1052E000206808B9012010BDC0216268501C6060B0
:1052F0002068815400216268501C606020688154DD
:105300000020F0E710B58021874800F0B2F90020B6
:105310008649088010BD8548008808B9012070477B
:105320008248008882490988884203D100207F4949
:105330000880F4E77D4800887D4908800120EEE779
:105340002DE9F04104460D46C826204600F0C4F978
:1053500087B23A4621467748FCF7AEFE0FE0FFF7EA
:10536000DAFF48B92946704800F09AF920B1FFF7F2
:10537000C9FF0020BDE8F0810A20FCF7B5FD300030
:10538000A6F10101CEB2EAD10120F3E730B589B030
:1053900004460D46FFF7B6FF2A4667A101A800F0B4
:1053A00061FD69A101A8FFF7CBFF20B92A4621467C
:1053B0006048FCF781FE09B030BD70B50546002499
:1053C00000BFFFF7A8FF80B960A1574800F068F957
:1053D000044654B13A21204600F074F9044614B151
:1053E000641C204670BD0020FCE70520FCF77CFD16
:1053F0002800A5F101018DB2E3D100BFF2E708B5A5
:1054000001210420FBF7C4FB10208DF803000120CC
:10541000ADF8000003208DF8020069464D48FBF707
:10542000FBF8002201214B48FBF7A7F9FA20FCF713
:105430005BFD012211464748FBF79FF94FF4FA70D4
:10544000FCF752FDFFF75EFF43A14548FCF74DFE18
:1054500003E04FF4FA70FCF747FD42A142A0FFF7CA
:105460006FFF0028F5D142A13D48FCF73EFE03E066
:105470004FF4FA70FCF738FD3AA140A0FFF760FF47
:105480000028F5D141A13648FCF72FFE03E04FF488
:10549000FA70FCF729FD33A140A0FFF751FF002867
:1054A000F5D142A12E48FCF720FE03E04FF4FA703C
:1054B000FCF71AFD40A142A0FFF742FF0028F5D1FA
:1054C00048A12748FCF711FE03E04FF4FA70FCF7FF
:1054D0000BFD48A149A0FFF733FF0028F5D152A1E9
:1054E0001F48FCF702FE08BD10B540F225511148D7
:1054F000FBF772FDB0B10D480088802802D3002070
:105500000A4908800B48001D0088C1B2074802887C
:105510000088401C054B1880034881542021054811
:10552000FBF751FD10BD0000CC110020F80B00204E
:10553000FA0B00200044004041542B43495053458E
:105540004E443D25640D0A003E0000004950442CA5
:105550000000000000080140312E2041540D0A00D7
:10556000003801404F4B000041540D0A000000007C
:10557000322E2043574D4F44450D0A0041542B43D2
:10558000574D4F44453D310D0A000000332E204158
:10559000542B4357444843500D0A000041542B43B9
:1055A00057444843503D312C310D0A00342E2043DE
:1055B000574A41500D0A0000474F542049500000FF
:1055C00041542B43574A41503D224F50504F523186
:1055D00031506C7573222C223133343536373839DB
:1055E000220D0A00352E2043495053544152540D88
:1055F0000A000000434F4E4E4543540041542B4394
:10560000495053544152543D22544350222C22318C
:1056100032312E33362E34322E313030222C313886
:1056200038330D0A00000000362E20455350383222
:10563000363620496E6974204F4B0D0A0000000079
:1056400040EA01039B0703D009E008C9121F08C004
:10565000042AFAD203E011F8013B00F8013B521E84
:10566000F9D27047D2B201E000F8012B491EFBD2FB
:1056700070470022F6E710B513460A46044619465D
:10568000FFF7F0FF204610BD421E12F8013F002B2D
:10569000FBD111F8013B02F8013B002BF9D1704717
:1056A00030B505462A460B4612F8010B13F8014B9C
:1056B00008B1A042F8D01CB1002802D06D1CF1E75F
:1056C000284630BDCAB2401E10F8011F8A4202D0DF
:1056D0000029F9D100207047421C10F8011B002955
:1056E000FBD1801A704710B5044600E0401C0378D7
:1056F000002BFBD100E0401C521E04D311F8013BEB
:105700000370002BF7D100210170204610BD034625
:1057100011F8012B00F8012B002AF9D11846704727
:1057200070B5064600F0C4FB046805460A22002155
:10573000304600F0FBF82C6070BD2DE9FE4F81EA89
:10574000030404F0004421F0004100944FF0000BEA
:1057500023F0004350EA01045ED052EA03045BD018
:10576000C3F30A54C1F30A552C44A4F2F334019450
:10577000A0FB0254C1F3130141F48011C3F31303DE
:1057800043F4801301FB024400FB034E840A970A92
:1057900044EA815447EA8357A4FB076802958D0ABF
:1057A00005FB07854FEA932C04FB0C542705029D4B
:1057B0004FEA065847EA1637B5EB08056EEB070CBB
:1057C000870E920E47EA811742EA8312A7FB020175
:1057D000B6EB0B0164EB00042B0D43EA0C335E18AF
:1057E00044EB1C50DA465146E7FB0201C5F31304B3
:1057F0004FEA0B3343EA14534FEA0432019C43EA65
:105800000603A4F10C040294009CCDE900B400F05E
:10581000D4F803B0BDE8F08F00200146F9E70EB5DB
:10582000C10F80EAE0700844CA07002140F2334308
:105830008DE80E000A460B4600F0BFF803B000BD2D
:1058400070B5C1F30A5201F000450024C1F3130101
:1058500040F2FF3341F480119A4201DA002070BD1A
:1058600040F233439A42A2F2334203DC524200F048
:105870004DF800E090402C43F1D0404270BD30B56F
:105880000B46014600202022012409E021FA02F5FE
:105890009D4205D303FA02F5491B04FA02F5284498
:1058A000151EA2F10102F1DC30BD2DE9F05F0546C5
:1058B000002092469B4688460646814640241BE0CF
:1058C000284641464746224600F020F853465A46AD
:1058D000C01A914110D311461846224600F014FA1E
:1058E0002D1A67EB01084F4622460120002100F0E7
:1058F0000BFA17EB00094E41201EA4F10104DFDC76
:10590000484631462A464346BDE8F09F202A04DB3C
:10591000203A21FA02F00021704721FA02F3D04028
:10592000C2F1200291400843194670472DE9F04723
:1059300091460F4680460446002614F8015B2DB1BF
:1059400000F004FA0068405DC007F6D12B2D02D0AC
:105950002D2D18D0641E4A463946204600F0FAF92B
:1059600027B13968A14201D1C7F8008071054FF015
:1059700002040BD54042002803DD00F099FA0460D0
:10598000A007BDE8F08746F48066E4E70028F8DA6F
:1059900000F08EFA04606FF00040F2E710B5141EBC
:1059A00073F1000408DA401C41F1000192185B41D8
:1059B0001A4301D120F0010010BD2DE9F04D9246AF
:1059C0009B4611B1B1FA81F202E0B0FA80F22032C6
:1059D000904600F099F904460F4640EA0A0041EA71
:1059E0000B0153465A46084313D0114653EA0100AF
:1059F00019D0C8F140025046FFF788FF05460E4611
:105A000050465946424600F07FF9084305D0012030
:105A100004E020463946BDE8F08D0020054346EA03
:105A2000E0762C4337430A986305E40AA0EB0800AC
:105A30000022FD0A44EA47540A3002D500200146FC
:105A4000E9E7010510196941DDE9084500196941D7
:105A5000BDE8F04DA2E72DE9FE4F804681EA030044
:105A6000C00F0C46009021F0004123F00045B8EB38
:105A70000200A94105D24046214690461C460B46ED
:105A8000024623F00040104347D0270DC7F30A0019
:105A9000C3F30A510290401A019040286BDAC3F315
:105AA000130040F4801B0098924620B10023D2EBF3
:105AB000030A63EB0B0B01985946C0F140025046B4
:105AC00000F022F906460D4650465946019A00F06C
:105AD0002AF910EB08006141002487EA115284EA98
